{
  "contractName": "Ballot",
  "abi": [
    {
      "anonymous": false,
      "inputs": [
        {
          "indexed": false,
          "internalType": "uint256",
          "name": "id",
          "type": "uint256"
        },
        {
          "indexed": false,
          "internalType": "string",
          "name": "name",
          "type": "string"
        },
        {
          "indexed": false,
          "internalType": "bool",
          "name": "done",
          "type": "bool"
        }
      ],
      "name": "todoEvent",
      "type": "event"
    },
    {
      "constant": true,
      "inputs": [],
      "name": "counttodo",
      "outputs": [
        {
          "internalType": "uint256",
          "name": "",
          "type": "uint256"
        }
      ],
      "payable": false,
      "stateMutability": "view",
      "type": "function"
    },
    {
      "constant": true,
      "inputs": [
        {
          "internalType": "uint256",
          "name": "",
          "type": "uint256"
        }
      ],
      "name": "todoList",
      "outputs": [
        {
          "internalType": "uint256",
          "name": "id",
          "type": "uint256"
        },
        {
          "internalType": "string",
          "name": "name",
          "type": "string"
        },
        {
          "internalType": "bool",
          "name": "done",
          "type": "bool"
        }
      ],
      "payable": false,
      "stateMutability": "view",
      "type": "function"
    },
    {
      "constant": false,
      "inputs": [
        {
          "internalType": "string",
          "name": "name",
          "type": "string"
        }
      ],
      "name": "addTodo",
      "outputs": [],
      "payable": true,
      "stateMutability": "payable",
      "type": "function"
    },
    {
      "constant": false,
      "inputs": [
        {
          "internalType": "uint256",
          "name": "id",
          "type": "uint256"
        }
      ],
      "name": "getById",
      "outputs": [],
      "payable": false,
      "stateMutability": "nonpayable",
      "type": "function"
    }
  ],
  "bytecode": "0x60806040526000805534801561001457600080fd5b5061058a806100246000396000f3fe60806040526004361061003f5760003560e01c806358c2d4691461004457806395ffebf51461010a578063ac10474b146101c5578063f4f4d237146101f0575b600080fd5b34801561005057600080fd5b5061007d6004803603602081101561006757600080fd5b810190808035906020019092919050505061022b565b604051808481526020018060200183151515158152602001828103825284818151815260200191508051906020019080838360005b838110156100cd5780820151818401526020810190506100b2565b50505050905090810190601f1680156100fa5780820380516001836020036101000a031916815260200191505b5094505050505060405180910390f35b6101c36004803603602081101561012057600080fd5b810190808035906020019064010000000081111561013d57600080fd5b82018360208201111561014f57600080fd5b8035906020019184600183028401116401000000008311171561017157600080fd5b91908080601f016020809104026020016040519081016040528093929190818152602001838380828437600081840152601f19601f8201169050808301925050505050505091929192905050506102fa565b005b3480156101d157600080fd5b506101da61038c565b6040518082815260200191505060405180910390f35b3480156101fc57600080fd5b506102296004803603602081101561021357600080fd5b8101908080359060200190929190505050610392565b005b6001602052806000526040600020600091509050806000015490806001018054600181600116156101000203166002900480601f0160208091040260200160405190810160405280929190818152602001828054600181600116156101000203166002900480156102dd5780601f106102b2576101008083540402835291602001916102dd565b820191906000526020600020905b8154815290600101906020018083116102c057829003601f168201915b5050505050908060020160009054906101000a900460ff16905083565b6000808154809291906001019190505550604051806060016040528060005481526020018281526020016000151581525060016000805481526020019081526020016000206000820151816000015560208201518160010190805190602001906103659291906104b0565b5060408201518160020160006101000a81548160ff02191690831515021790555090505050565b60005481565b7f79e9736e394e7f85342d5659207e8ac672f0b2b7c991b279874a60074652b4cc6001600083815260200190815260200160002060000154600160008481526020019081526020016000206001016001600085815260200190815260200160002060020160009054906101000a900460ff1660405180848152602001806020018315151515815260200182810382528481815460018160011615610100020316600290048152602001915080546001816001161561010002031660029004801561049d5780601f106104725761010080835404028352916020019161049d565b820191906000526020600020905b81548152906001019060200180831161048057829003601f168201915b505094505050505060405180910390a150565b828054600181600116156101000203166002900490600052602060002090601f016020900481019282601f106104f157805160ff191683800117855561051f565b8280016001018555821561051f579182015b8281111561051e578251825591602001919060010190610503565b5b50905061052c9190610530565b5090565b61055291905b8082111561054e576000816000905550600101610536565b5090565b9056fea265627a7a723158208e494376861bab2c4eb39cfa7c887de18f3cd6579493cbe425330ea06857f64564736f6c634300050c0032",
  "source": "pragma solidity >=0.4.21 <0.7.0;\r\ncontract Ballot {\r\n    uint public counttodo=0;\r\n\r\n    struct todo {\r\n        uint256 id;\r\n        string name;\r\n        bool done;\r\n    }\r\n    event todoEvent (\r\n        uint id,\r\n        string name,\r\n        bool done\r\n    );\r\n\r\n    mapping(uint => todo) public todoList;\r\n\r\n\r\n\r\n    function addTodo( string memory name) public payable{\r\n        counttodo ++;\r\n        todoList[counttodo]= todo(counttodo, name, false);\r\n    }\r\n\r\n    function getById(uint id) public{\r\n        emit todoEvent(todoList[id].id,todoList[id].name,todoList[id].done);\r\n    }\r\n}\r\n",
  "sourcePath": "C:/Users/karthika/blockTODO/contracts/Todo.sol",
  "compiler": {
    "name": "solc",
    "version": "0.5.12+commit.7709ece9.Emscripten.clang"
  },
  "schemaVersion": "3.0.20",
  "updatedAt": "2020-01-10T08:05:22.952Z",
  "devdoc": {
    "methods": {}
  },
  "userdoc": {
    "methods": {}
  }
}